{
  "address": "0xF6f9a3550F2C8e2F4C7Eea990ff010Eb3C49467a",
  "abi": [
    {
      "anonymous": false,
      "inputs": [
        {
          "indexed": false,
          "internalType": "address",
          "name": "PO",
          "type": "address"
        },
        {
          "indexed": false,
          "internalType": "address",
          "name": "purchaser",
          "type": "address"
        },
        {
          "indexed": false,
          "internalType": "uint256",
          "name": "amountOfMoney",
          "type": "uint256"
        },
        {
          "indexed": false,
          "internalType": "uint256",
          "name": "acceptTimeStamp",
          "type": "uint256"
        }
      ],
      "name": "POCreated",
      "type": "event"
    },
    {
      "inputs": [
        {
          "internalType": "address",
          "name": "vendorAddress",
          "type": "address"
        },
        {
          "internalType": "uint256",
          "name": "PONo",
          "type": "uint256"
        },
        {
          "internalType": "uint256",
          "name": "timeToAccept",
          "type": "uint256"
        },
        {
          "internalType": "uint256",
          "name": "timeToShip",
          "type": "uint256"
        }
      ],
      "name": "createProductOrder",
      "outputs": [],
      "stateMutability": "payable",
      "type": "function"
    }
  ],
  "transactionHash": "0x984665a595f07f404ebd82a8fd25d949c3f46ad7e2dfcf56c95955f1e0cdcb51",
  "args": [],
  "numDeployments": 4,
  "solcInputHash": "f4282da8f37b3e80ba35aa876e4f9a27",
  "bytecode": "0x608060405234801561001057600080fd5b50611e7f806100206000396000f3fe60806040526004361061001e5760003560e01c806313673ffd14610023575b600080fd5b61003d600480360381019061003891906101cc565b61003f565b005b60003390506000349050600042905060008388888589868a60405161006390610126565b6100739796959493929190610251565b604051809103906000f08015801561008f573d6000803e3d6000fd5b50905060008190508073ffffffffffffffffffffffffffffffffffffffff166108fc349081150290604051600060405180830381858888f193505050501580156100dd573d6000803e3d6000fd5b507ff35e28e780b04572fe0a14182086ce984c65115e7ae69b8b031b070ac70a3d858186868660405161011394939291906102c0565b60405180910390a1505050505050505050565b611b448061030683390190565b600080fd5b600073ffffffffffffffffffffffffffffffffffffffff82169050919050565b600061016382610138565b9050919050565b61017381610158565b811461017e57600080fd5b50565b6000813590506101908161016a565b92915050565b6000819050919050565b6101a981610196565b81146101b457600080fd5b50565b6000813590506101c6816101a0565b92915050565b600080600080608085870312156101e6576101e5610133565b5b60006101f487828801610181565b9450506020610205878288016101b7565b9350506040610216878288016101b7565b9250506060610227878288016101b7565b91505092959194509250565b61023c81610158565b82525050565b61024b81610196565b82525050565b600060e082019050610266600083018a610233565b6102736020830189610233565b6102806040830188610242565b61028d6060830187610242565b61029a6080830186610242565b6102a760a0830185610242565b6102b460c0830184610242565b98975050505050505050565b60006080820190506102d56000830187610233565b6102e26020830186610233565b6102ef6040830185610242565b6102fc6060830184610242565b9594505050505056fe6101406040527fffffffffffffffffffffffffffffffffffffffffffffffffffffffffffffffff6003557ffffffffffffffffffffffffffffffffffffffffffffffffffffffffffffffffe6004553480156200005a57600080fd5b5060405162001b4438038062001b448339818101604052810190620000809190620001f6565b8673ffffffffffffffffffffffffffffffffffffffff1660808173ffffffffffffffffffffffffffffffffffffffff1660601b815250508573ffffffffffffffffffffffffffffffffffffffff1660a08173ffffffffffffffffffffffffffffffffffffffff1660601b815250508460c08181525050836001819055508260e0818152505081610100818152505080610120818152505060008060006101000a81548160ff021916908360068111156200013f576200013e620002a9565b5b021790555050505050505050620002d8565b600080fd5b600073ffffffffffffffffffffffffffffffffffffffff82169050919050565b6000620001838262000156565b9050919050565b620001958162000176565b8114620001a157600080fd5b50565b600081519050620001b5816200018a565b92915050565b6000819050919050565b620001d081620001bb565b8114620001dc57600080fd5b50565b600081519050620001f081620001c5565b92915050565b600080600080600080600060e0888a03121562000218576200021762000151565b5b6000620002288a828b01620001a4565b97505060206200023b8a828b01620001a4565b96505060406200024e8a828b01620001df565b9550506060620002618a828b01620001df565b9450506080620002748a828b01620001df565b93505060a0620002878a828b01620001df565b92505060c06200029a8a828b01620001df565b91505092959891949750929550565b7f4e487b7100000000000000000000000000000000000000000000000000000000600052602160045260246000fd5b60805160601c60a05160601c60c05160e05161010051610120516117a66200039e600039600081816105210152610b4e015260008181610ae00152610c27015260008181610abf0152610d390152600061066c01526000818161055d015281816108a901528181610c4d01528181610d69015281816110a50152611152015260008181610435015281816107590152818161083301528181610921015281816109e401528181610bff01528181610e6a01528181610f110152610f9101526117a66000f3fe6080604052600436106101185760003560e01c80636a816548116100a0578063c509b44111610064578063c509b44114610360578063dfe9d2b01461038b578063e70a0385146103b6578063e92b2357146103df578063ee5d9508146104085761011f565b80636a8165481461028c5780636e04ff0d146102a35780638e20131b146102e1578063adf224ff1461030c578063bfad19e2146103375761011f565b806327cff2e5116100e757806327cff2e5146101b75780633a2ef919146101e2578063448391511461020d57806344b32807146102385780634585e33b146102635761011f565b80630d9f3dad14610121578063115bbf541461014a5780631865c57d146101755780632397804a146101a05761011f565b3661011f57005b005b34801561012d57600080fd5b50610148600480360381019061014391906111c0565b610433565b005b34801561015657600080fd5b5061015f61051d565b60405161016c9190611206565b60405180910390f35b34801561018157600080fd5b5061018a610545565b6040516101979190611298565b60405180910390f35b3480156101ac57600080fd5b506101b561055b565b005b3480156101c357600080fd5b506101cc61064a565b6040516101d99190611206565b60405180910390f35b3480156101ee57600080fd5b506101f7610654565b60405161020491906112c2565b60405180910390f35b34801561021957600080fd5b5061022261065e565b60405161022f9190611206565b60405180910390f35b34801561024457600080fd5b5061024d610668565b60405161025a9190611206565b60405180910390f35b34801561026f57600080fd5b5061028a60048036038101906102859190611342565b610690565b005b34801561029857600080fd5b506102a161091f565b005b3480156102af57600080fd5b506102ca60048036038101906102c591906114d0565b610a7f565b6040516102d89291906115bc565b60405180910390f35b3480156102ed57600080fd5b506102f6610bfb565b604051610303919061162d565b60405180910390f35b34801561031857600080fd5b50610321610c23565b60405161032e9190611206565b60405180910390f35b34801561034357600080fd5b5061035e600480360381019061035991906111c0565b610c4b565b005b34801561036c57600080fd5b50610375610d35565b6040516103829190611206565b60405180910390f35b34801561039757600080fd5b506103a0610d5d565b6040516103ad91906112c2565b60405180910390f35b3480156103c257600080fd5b506103dd60048036038101906103d891906116a0565b610d67565b005b3480156103eb57600080fd5b50610406600480360381019061040191906116e0565b610f8f565b005b34801561041457600080fd5b5061041d61114e565b60405161042a919061162d565b60405180910390f35b7f000000000000000000000000000000000000000000000000000000000000000073ffffffffffffffffffffffffffffffffffffffff163373ffffffffffffffffffffffffffffffffffffffff16146104b8576040517ffbe11d2200000000000000000000000000000000000000000000000000000000815260040160405180910390fd5b600560068111156104cc576104cb611221565b5b60008054906101000a900460ff1660068111156104ec576104eb611221565b5b146104f657600080fd5b60015481131561050557600080fd5b600081121561051357600080fd5b8060038190555050565b60007f0000000000000000000000000000000000000000000000000000000000000000905090565b60008060009054906101000a900460ff16905090565b7f000000000000000000000000000000000000000000000000000000000000000073ffffffffffffffffffffffffffffffffffffffff163373ffffffffffffffffffffffffffffffffffffffff16146105e0576040517fee15884300000000000000000000000000000000000000000000000000000000815260040160405180910390fd5b600260068111156105f4576105f3611221565b5b60008054906101000a900460ff16600681111561061457610613611221565b5b1461061e57600080fd5b60036000806101000a81548160ff0219169083600681111561064357610642611221565b5b0217905550565b6000600154905090565b6000600354905090565b6000600254905090565b60007f0000000000000000000000000000000000000000000000000000000000000000905090565b60006106aa60405180602001604052806000815250610a7f565b509050806106b757600080fd5b600060068111156106cb576106ca611221565b5b60008054906101000a900460ff1660068111156106eb576106ea611221565b5b148061072857506002600681111561070657610705611221565b5b60008054906101000a900460ff16600681111561072657610725611221565b5b145b156107cd5760016000806101000a81548160ff0219169083600681111561075257610751611221565b5b02179055507f000000000000000000000000000000000000000000000000000000000000000073ffffffffffffffffffffffffffffffffffffffff166108fc6001549081150290604051600060405180830381858888f193505050501580156107bf573d6000803e3d6000fd5b50600060018190555061091a565b600560068111156107e1576107e0611221565b5b60008054906101000a900460ff16600681111561080157610800611221565b5b14156109195760066000806101000a81548160ff0219169083600681111561082c5761082b611221565b5b02179055507f000000000000000000000000000000000000000000000000000000000000000073ffffffffffffffffffffffffffffffffffffffff166108fc60045460015461087b919061173c565b9081150290604051600060405180830381858888f193505050501580156108a6573d6000803e3d6000fd5b507f000000000000000000000000000000000000000000000000000000000000000073ffffffffffffffffffffffffffffffffffffffff166108fc6004549081150290604051600060405180830381858888f1935050505015801561090f573d6000803e3d6000fd5b5060006001819055505b5b505050565b7f000000000000000000000000000000000000000000000000000000000000000073ffffffffffffffffffffffffffffffffffffffff163373ffffffffffffffffffffffffffffffffffffffff16146109a4576040517ffbe11d2200000000000000000000000000000000000000000000000000000000815260040160405180910390fd5b600060068111156109b8576109b7611221565b5b60008054906101000a900460ff1660068111156109d8576109d7611221565b5b146109e257600080fd5b7f000000000000000000000000000000000000000000000000000000000000000073ffffffffffffffffffffffffffffffffffffffff166108fc6001549081150290604051600060405180830381858888f19350505050158015610a4a573d6000803e3d6000fd5b50600060018190555060016000806101000a81548160ff02191690836006811115610a7857610a77611221565b5b0217905550565b6000606060006006811115610a9757610a96611221565b5b60008054906101000a900460ff166006811115610ab757610ab6611221565b5b1415610b12577f00000000000000000000000000000000000000000000000000000000000000007f000000000000000000000000000000000000000000000000000000000000000042610b0a919061173c565b119150610bf6565b60026006811115610b2657610b25611221565b5b60008054906101000a900460ff166006811115610b4657610b45611221565b5b1415610bb0577f000000000000000000000000000000000000000000000000000000000000000060025442610b7b919061173c565b118015610ba957507fffffffffffffffffffffffffffffffffffffffffffffffffffffffffffffffff600354145b9150610bf5565b60056006811115610bc457610bc3611221565b5b60008054906101000a900460ff166006811115610be457610be3611221565b5b1415610bf4576004546003541491505b5b5b915091565b60007f0000000000000000000000000000000000000000000000000000000000000000905090565b60007f0000000000000000000000000000000000000000000000000000000000000000905090565b7f000000000000000000000000000000000000000000000000000000000000000073ffffffffffffffffffffffffffffffffffffffff163373ffffffffffffffffffffffffffffffffffffffff1614610cd0576040517fee15884300000000000000000000000000000000000000000000000000000000815260040160405180910390fd5b60056006811115610ce457610ce3611221565b5b60008054906101000a900460ff166006811115610d0457610d03611221565b5b14610d0e57600080fd5b600154811315610d1d57600080fd5b6000811215610d2b57600080fd5b8060048190555050565b60007f0000000000000000000000000000000000000000000000000000000000000000905090565b6000600454905090565b7f000000000000000000000000000000000000000000000000000000000000000073ffffffffffffffffffffffffffffffffffffffff163373ffffffffffffffffffffffffffffffffffffffff1614610dec576040517fee15884300000000000000000000000000000000000000000000000000000000815260040160405180910390fd5b60006006811115610e0057610dff611221565b5b60008054906101000a900460ff166006811115610e2057610e1f611221565b5b14610e2a57600080fd5b600154811115610e3957600080fd5b81610ede5760016000806101000a81548160ff02191690836006811115610e6357610e62611221565b5b02179055507f000000000000000000000000000000000000000000000000000000000000000073ffffffffffffffffffffffffffffffffffffffff166108fc6001549081150290604051600060405180830381858888f19350505050158015610ed0573d6000803e3d6000fd5b506000600181905550610f8b565b60026000806101000a81548160ff02191690836006811115610f0357610f02611221565b5b0217905550426002819055507f000000000000000000000000000000000000000000000000000000000000000073ffffffffffffffffffffffffffffffffffffffff166108fc82600154610f57919061173c565b9081150290604051600060405180830381858888f19350505050158015610f82573d6000803e3d6000fd5b50806001819055505b5050565b7f000000000000000000000000000000000000000000000000000000000000000073ffffffffffffffffffffffffffffffffffffffff163373ffffffffffffffffffffffffffffffffffffffff1614611014576040517ffbe11d2200000000000000000000000000000000000000000000000000000000815260040160405180910390fd5b6003600681111561102857611027611221565b5b60008054906101000a900460ff16600681111561104857611047611221565b5b1461105257600080fd5b60015481111561106157600080fd5b600081101561106f57600080fd5b6001548114156111195760046000806101000a81548160ff0219169083600681111561109e5761109d611221565b5b02179055507f000000000000000000000000000000000000000000000000000000000000000073ffffffffffffffffffffffffffffffffffffffff166108fc6001549081150290604051600060405180830381858888f1935050505015801561110b573d6000803e3d6000fd5b50600060018190555061114b565b60056000806101000a81548160ff0219169083600681111561113e5761113d611221565b5b0217905550806003819055505b50565b60007f0000000000000000000000000000000000000000000000000000000000000000905090565b6000604051905090565b600080fd5b600080fd5b6000819050919050565b61119d8161118a565b81146111a857600080fd5b50565b6000813590506111ba81611194565b92915050565b6000602082840312156111d6576111d5611180565b5b60006111e4848285016111ab565b91505092915050565b6000819050919050565b611200816111ed565b82525050565b600060208201905061121b60008301846111f7565b92915050565b7f4e487b7100000000000000000000000000000000000000000000000000000000600052602160045260246000fd5b6007811061126157611260611221565b5b50565b600081905061127282611250565b919050565b600061128282611264565b9050919050565b61129281611277565b82525050565b60006020820190506112ad6000830184611289565b92915050565b6112bc8161118a565b82525050565b60006020820190506112d760008301846112b3565b92915050565b600080fd5b600080fd5b600080fd5b60008083601f840112611302576113016112dd565b5b8235905067ffffffffffffffff81111561131f5761131e6112e2565b5b60208301915083600182028301111561133b5761133a6112e7565b5b9250929050565b6000806020838503121561135957611358611180565b5b600083013567ffffffffffffffff81111561137757611376611185565b5b611383858286016112ec565b92509250509250929050565b600080fd5b6000601f19601f8301169050919050565b7f4e487b7100000000000000000000000000000000000000000000000000000000600052604160045260246000fd5b6113dd82611394565b810181811067ffffffffffffffff821117156113fc576113fb6113a5565b5b80604052505050565b600061140f611176565b905061141b82826113d4565b919050565b600067ffffffffffffffff82111561143b5761143a6113a5565b5b61144482611394565b9050602081019050919050565b82818337600083830152505050565b600061147361146e84611420565b611405565b90508281526020810184848401111561148f5761148e61138f565b5b61149a848285611451565b509392505050565b600082601f8301126114b7576114b66112dd565b5b81356114c7848260208601611460565b91505092915050565b6000602082840312156114e6576114e5611180565b5b600082013567ffffffffffffffff81111561150457611503611185565b5b611510848285016114a2565b91505092915050565b60008115159050919050565b61152e81611519565b82525050565b600081519050919050565b600082825260208201905092915050565b60005b8381101561156e578082015181840152602081019050611553565b8381111561157d576000848401525b50505050565b600061158e82611534565b611598818561153f565b93506115a8818560208601611550565b6115b181611394565b840191505092915050565b60006040820190506115d16000830185611525565b81810360208301526115e38184611583565b90509392505050565b600073ffffffffffffffffffffffffffffffffffffffff82169050919050565b6000611617826115ec565b9050919050565b6116278161160c565b82525050565b6000602082019050611642600083018461161e565b92915050565b61165181611519565b811461165c57600080fd5b50565b60008135905061166e81611648565b92915050565b61167d816111ed565b811461168857600080fd5b50565b60008135905061169a81611674565b92915050565b600080604083850312156116b7576116b6611180565b5b60006116c58582860161165f565b92505060206116d68582860161168b565b9150509250929050565b6000602082840312156116f6576116f5611180565b5b60006117048482850161168b565b91505092915050565b7f4e487b7100000000000000000000000000000000000000000000000000000000600052601160045260246000fd5b6000611747826111ed565b9150611752836111ed565b9250828210156117655761176461170d565b5b82820390509291505056fea26469706673582212200f777fbc5ff2f888740f4f1dc585cf172ba2d43a0f3465b91d0bf408df1b7b7764736f6c63430008080033a2646970667358221220509e27d4731022bf5df9263831f8261f869588d7f14cd31634549073417b8f1864736f6c63430008080033",
  "devdoc": {
    "kind": "dev",
    "methods": {},
    "version": 1
  },
  "userdoc": {
    "kind": "user",
    "methods": {},
    "version": 1
  },
  "storageLayout": {
    "storage": [],
    "types": null
  }
}