{
  "address": "0xE2b1D1305036d1739e96e0729a60DEe6a4112Ee8",
  "abi": [
    {
      "anonymous": false,
      "inputs": [
        {
          "indexed": false,
          "internalType": "address",
          "name": "PO",
          "type": "address"
        },
        {
          "indexed": false,
          "internalType": "address",
          "name": "purchaser",
          "type": "address"
        },
        {
          "indexed": false,
          "internalType": "uint256",
          "name": "amountOfMoney",
          "type": "uint256"
        },
        {
          "indexed": false,
          "internalType": "uint256",
          "name": "acceptTimeStamp",
          "type": "uint256"
        }
      ],
      "name": "POCreated",
      "type": "event"
    },
    {
      "inputs": [
        {
          "internalType": "address",
          "name": "vendorAddress",
          "type": "address"
        },
        {
          "internalType": "uint256",
          "name": "PONo",
          "type": "uint256"
        },
        {
          "internalType": "uint256",
          "name": "timeToAccept",
          "type": "uint256"
        },
        {
          "internalType": "uint256",
          "name": "timeToShip",
          "type": "uint256"
        }
      ],
      "name": "createProductOrder",
      "outputs": [],
      "stateMutability": "payable",
      "type": "function"
    }
  ],
  "transactionHash": "0x7be3424ce11bd32c005e047d65a30e55ad697d534112657aa30e1c391d52f242",
  "args": [],
  "numDeployments": 3,
  "solcInputHash": "40965095abeace583f235b7b19166c6e",
  "bytecode": "0x608060405234801561001057600080fd5b50611d67806100206000396000f3fe60806040526004361061001e5760003560e01c806313673ffd14610023575b600080fd5b61003d600480360381019061003891906101cc565b61003f565b005b60003390506000349050600042905060008388888589868a60405161006390610126565b6100739796959493929190610251565b604051809103906000f08015801561008f573d6000803e3d6000fd5b50905060008190508073ffffffffffffffffffffffffffffffffffffffff166108fc349081150290604051600060405180830381858888f193505050501580156100dd573d6000803e3d6000fd5b507ff35e28e780b04572fe0a14182086ce984c65115e7ae69b8b031b070ac70a3d858186868660405161011394939291906102c0565b60405180910390a1505050505050505050565b611a2c8061030683390190565b600080fd5b600073ffffffffffffffffffffffffffffffffffffffff82169050919050565b600061016382610138565b9050919050565b61017381610158565b811461017e57600080fd5b50565b6000813590506101908161016a565b92915050565b6000819050919050565b6101a981610196565b81146101b457600080fd5b50565b6000813590506101c6816101a0565b92915050565b600080600080608085870312156101e6576101e5610133565b5b60006101f487828801610181565b9450506020610205878288016101b7565b9350506040610216878288016101b7565b9250506060610227878288016101b7565b91505092959194509250565b61023c81610158565b82525050565b61024b81610196565b82525050565b600060e082019050610266600083018a610233565b6102736020830189610233565b6102806040830188610242565b61028d6060830187610242565b61029a6080830186610242565b6102a760a0830185610242565b6102b460c0830184610242565b98975050505050505050565b60006080820190506102d56000830187610233565b6102e26020830186610233565b6102ef6040830185610242565b6102fc6060830184610242565b9594505050505056fe6101406040527fffffffffffffffffffffffffffffffffffffffffffffffffffffffffffffffff6003557ffffffffffffffffffffffffffffffffffffffffffffffffffffffffffffffffe6004553480156200005a57600080fd5b5060405162001a2c38038062001a2c8339818101604052810190620000809190620001f6565b8673ffffffffffffffffffffffffffffffffffffffff1660808173ffffffffffffffffffffffffffffffffffffffff1660601b815250508573ffffffffffffffffffffffffffffffffffffffff1660a08173ffffffffffffffffffffffffffffffffffffffff1660601b815250508460c08181525050836001819055508260e0818152505081610100818152505080610120818152505060008060006101000a81548160ff021916908360058111156200013f576200013e620002a9565b5b021790555050505050505050620002d8565b600080fd5b600073ffffffffffffffffffffffffffffffffffffffff82169050919050565b6000620001838262000156565b9050919050565b620001958162000176565b8114620001a157600080fd5b50565b600081519050620001b5816200018a565b92915050565b6000819050919050565b620001d081620001bb565b8114620001dc57600080fd5b50565b600081519050620001f081620001c5565b92915050565b600080600080600080600060e0888a03121562000218576200021762000151565b5b6000620002288a828b01620001a4565b97505060206200023b8a828b01620001a4565b96505060406200024e8a828b01620001df565b9550506060620002618a828b01620001df565b9450506080620002748a828b01620001df565b93505060a0620002878a828b01620001df565b92505060c06200029a8a828b01620001df565b91505092959891949750929550565b7f4e487b7100000000000000000000000000000000000000000000000000000000600052602160045260246000fd5b60805160601c60a05160601c60c05160e051610100516101205161169562000397600039600081816104ff0152610a3d0152600081816109cf0152610b160152600081816109ae0152610c280152600061055b01526000818161079801528181610b3c01528181610c5801528181610f940152611041015260008181610413015281816106480152818161072201528181610810015281816108d301528181610aee01528181610d5901528181610e000152610e8001526116956000f3fe60806040526004361061010d5760003560e01c80636e04ff0d11610095578063c509b44111610064578063c509b4411461033e578063dfe9d2b014610369578063e70a038514610394578063e92b2357146103bd578063ee5d9508146103e657610114565b80636e04ff0d146102815780638e20131b146102bf578063adf224ff146102ea578063bfad19e21461031557610114565b80633a2ef919116100dc5780633a2ef919146101c057806344839151146101eb57806344b32807146102165780634585e33b146102415780636a8165481461026a57610114565b80630d9f3dad14610116578063115bbf541461013f5780631865c57d1461016a57806327cff2e51461019557610114565b3661011457005b005b34801561012257600080fd5b5061013d600480360381019061013891906110af565b610411565b005b34801561014b57600080fd5b506101546104fb565b60405161016191906110f5565b60405180910390f35b34801561017657600080fd5b5061017f610523565b60405161018c9190611187565b60405180910390f35b3480156101a157600080fd5b506101aa610539565b6040516101b791906110f5565b60405180910390f35b3480156101cc57600080fd5b506101d5610543565b6040516101e291906111b1565b60405180910390f35b3480156101f757600080fd5b5061020061054d565b60405161020d91906110f5565b60405180910390f35b34801561022257600080fd5b5061022b610557565b60405161023891906110f5565b60405180910390f35b34801561024d57600080fd5b5061026860048036038101906102639190611231565b61057f565b005b34801561027657600080fd5b5061027f61080e565b005b34801561028d57600080fd5b506102a860048036038101906102a391906113bf565b61096e565b6040516102b69291906114ab565b60405180910390f35b3480156102cb57600080fd5b506102d4610aea565b6040516102e1919061151c565b60405180910390f35b3480156102f657600080fd5b506102ff610b12565b60405161030c91906110f5565b60405180910390f35b34801561032157600080fd5b5061033c600480360381019061033791906110af565b610b3a565b005b34801561034a57600080fd5b50610353610c24565b60405161036091906110f5565b60405180910390f35b34801561037557600080fd5b5061037e610c4c565b60405161038b91906111b1565b60405180910390f35b3480156103a057600080fd5b506103bb60048036038101906103b6919061158f565b610c56565b005b3480156103c957600080fd5b506103e460048036038101906103df91906115cf565b610e7e565b005b3480156103f257600080fd5b506103fb61103d565b604051610408919061151c565b60405180910390f35b7f000000000000000000000000000000000000000000000000000000000000000073ffffffffffffffffffffffffffffffffffffffff163373ffffffffffffffffffffffffffffffffffffffff1614610496576040517ffbe11d2200000000000000000000000000000000000000000000000000000000815260040160405180910390fd5b600360058111156104aa576104a9611110565b5b60008054906101000a900460ff1660058111156104ca576104c9611110565b5b146104d457600080fd5b6001548113156104e357600080fd5b60008112156104f157600080fd5b8060038190555050565b60007f0000000000000000000000000000000000000000000000000000000000000000905090565b60008060009054906101000a900460ff16905090565b6000600154905090565b6000600354905090565b6000600254905090565b60007f0000000000000000000000000000000000000000000000000000000000000000905090565b60006105996040518060200160405280600081525061096e565b509050806105a657600080fd5b600060058111156105ba576105b9611110565b5b60008054906101000a900460ff1660058111156105da576105d9611110565b5b14806106175750600260058111156105f5576105f4611110565b5b60008054906101000a900460ff16600581111561061557610614611110565b5b145b156106bc5760016000806101000a81548160ff0219169083600581111561064157610640611110565b5b02179055507f000000000000000000000000000000000000000000000000000000000000000073ffffffffffffffffffffffffffffffffffffffff166108fc6001549081150290604051600060405180830381858888f193505050501580156106ae573d6000803e3d6000fd5b506000600181905550610809565b600360058111156106d0576106cf611110565b5b60008054906101000a900460ff1660058111156106f0576106ef611110565b5b14156108085760056000806101000a81548160ff0219169083600581111561071b5761071a611110565b5b02179055507f000000000000000000000000000000000000000000000000000000000000000073ffffffffffffffffffffffffffffffffffffffff166108fc60045460015461076a919061162b565b9081150290604051600060405180830381858888f19350505050158015610795573d6000803e3d6000fd5b507f000000000000000000000000000000000000000000000000000000000000000073ffffffffffffffffffffffffffffffffffffffff166108fc6004549081150290604051600060405180830381858888f193505050501580156107fe573d6000803e3d6000fd5b5060006001819055505b5b505050565b7f000000000000000000000000000000000000000000000000000000000000000073ffffffffffffffffffffffffffffffffffffffff163373ffffffffffffffffffffffffffffffffffffffff1614610893576040517ffbe11d2200000000000000000000000000000000000000000000000000000000815260040160405180910390fd5b600060058111156108a7576108a6611110565b5b60008054906101000a900460ff1660058111156108c7576108c6611110565b5b146108d157600080fd5b7f000000000000000000000000000000000000000000000000000000000000000073ffffffffffffffffffffffffffffffffffffffff166108fc6001549081150290604051600060405180830381858888f19350505050158015610939573d6000803e3d6000fd5b50600060018190555060016000806101000a81548160ff0219169083600581111561096757610966611110565b5b0217905550565b600060606000600581111561098657610985611110565b5b60008054906101000a900460ff1660058111156109a6576109a5611110565b5b1415610a01577f00000000000000000000000000000000000000000000000000000000000000007f0000000000000000000000000000000000000000000000000000000000000000426109f9919061162b565b119150610ae5565b60026005811115610a1557610a14611110565b5b60008054906101000a900460ff166005811115610a3557610a34611110565b5b1415610a9f577f000000000000000000000000000000000000000000000000000000000000000060025442610a6a919061162b565b118015610a9857507fffffffffffffffffffffffffffffffffffffffffffffffffffffffffffffffff600354145b9150610ae4565b60036005811115610ab357610ab2611110565b5b60008054906101000a900460ff166005811115610ad357610ad2611110565b5b1415610ae3576004546003541491505b5b5b915091565b60007f0000000000000000000000000000000000000000000000000000000000000000905090565b60007f0000000000000000000000000000000000000000000000000000000000000000905090565b7f000000000000000000000000000000000000000000000000000000000000000073ffffffffffffffffffffffffffffffffffffffff163373ffffffffffffffffffffffffffffffffffffffff1614610bbf576040517fee15884300000000000000000000000000000000000000000000000000000000815260040160405180910390fd5b60036005811115610bd357610bd2611110565b5b60008054906101000a900460ff166005811115610bf357610bf2611110565b5b14610bfd57600080fd5b600154811315610c0c57600080fd5b6000811215610c1a57600080fd5b8060048190555050565b60007f0000000000000000000000000000000000000000000000000000000000000000905090565b6000600454905090565b7f000000000000000000000000000000000000000000000000000000000000000073ffffffffffffffffffffffffffffffffffffffff163373ffffffffffffffffffffffffffffffffffffffff1614610cdb576040517fee15884300000000000000000000000000000000000000000000000000000000815260040160405180910390fd5b60006005811115610cef57610cee611110565b5b60008054906101000a900460ff166005811115610d0f57610d0e611110565b5b14610d1957600080fd5b600154811115610d2857600080fd5b81610dcd5760016000806101000a81548160ff02191690836005811115610d5257610d51611110565b5b02179055507f000000000000000000000000000000000000000000000000000000000000000073ffffffffffffffffffffffffffffffffffffffff166108fc6001549081150290604051600060405180830381858888f19350505050158015610dbf573d6000803e3d6000fd5b506000600181905550610e7a565b60026000806101000a81548160ff02191690836005811115610df257610df1611110565b5b0217905550426002819055507f000000000000000000000000000000000000000000000000000000000000000073ffffffffffffffffffffffffffffffffffffffff166108fc82600154610e46919061162b565b9081150290604051600060405180830381858888f19350505050158015610e71573d6000803e3d6000fd5b50806001819055505b5050565b7f000000000000000000000000000000000000000000000000000000000000000073ffffffffffffffffffffffffffffffffffffffff163373ffffffffffffffffffffffffffffffffffffffff1614610f03576040517ffbe11d2200000000000000000000000000000000000000000000000000000000815260040160405180910390fd5b60026005811115610f1757610f16611110565b5b60008054906101000a900460ff166005811115610f3757610f36611110565b5b14610f4157600080fd5b600154811115610f5057600080fd5b6000811015610f5e57600080fd5b6001548114156110085760046000806101000a81548160ff02191690836005811115610f8d57610f8c611110565b5b02179055507f000000000000000000000000000000000000000000000000000000000000000073ffffffffffffffffffffffffffffffffffffffff166108fc6001549081150290604051600060405180830381858888f19350505050158015610ffa573d6000803e3d6000fd5b50600060018190555061103a565b60036000806101000a81548160ff0219169083600581111561102d5761102c611110565b5b0217905550806003819055505b50565b60007f0000000000000000000000000000000000000000000000000000000000000000905090565b6000604051905090565b600080fd5b600080fd5b6000819050919050565b61108c81611079565b811461109757600080fd5b50565b6000813590506110a981611083565b92915050565b6000602082840312156110c5576110c461106f565b5b60006110d38482850161109a565b91505092915050565b6000819050919050565b6110ef816110dc565b82525050565b600060208201905061110a60008301846110e6565b92915050565b7f4e487b7100000000000000000000000000000000000000000000000000000000600052602160045260246000fd5b600681106111505761114f611110565b5b50565b60008190506111618261113f565b919050565b600061117182611153565b9050919050565b61118181611166565b82525050565b600060208201905061119c6000830184611178565b92915050565b6111ab81611079565b82525050565b60006020820190506111c660008301846111a2565b92915050565b600080fd5b600080fd5b600080fd5b60008083601f8401126111f1576111f06111cc565b5b8235905067ffffffffffffffff81111561120e5761120d6111d1565b5b60208301915083600182028301111561122a576112296111d6565b5b9250929050565b600080602083850312156112485761124761106f565b5b600083013567ffffffffffffffff81111561126657611265611074565b5b611272858286016111db565b92509250509250929050565b600080fd5b6000601f19601f8301169050919050565b7f4e487b7100000000000000000000000000000000000000000000000000000000600052604160045260246000fd5b6112cc82611283565b810181811067ffffffffffffffff821117156112eb576112ea611294565b5b80604052505050565b60006112fe611065565b905061130a82826112c3565b919050565b600067ffffffffffffffff82111561132a57611329611294565b5b61133382611283565b9050602081019050919050565b82818337600083830152505050565b600061136261135d8461130f565b6112f4565b90508281526020810184848401111561137e5761137d61127e565b5b611389848285611340565b509392505050565b600082601f8301126113a6576113a56111cc565b5b81356113b684826020860161134f565b91505092915050565b6000602082840312156113d5576113d461106f565b5b600082013567ffffffffffffffff8111156113f3576113f2611074565b5b6113ff84828501611391565b91505092915050565b60008115159050919050565b61141d81611408565b82525050565b600081519050919050565b600082825260208201905092915050565b60005b8381101561145d578082015181840152602081019050611442565b8381111561146c576000848401525b50505050565b600061147d82611423565b611487818561142e565b935061149781856020860161143f565b6114a081611283565b840191505092915050565b60006040820190506114c06000830185611414565b81810360208301526114d28184611472565b90509392505050565b600073ffffffffffffffffffffffffffffffffffffffff82169050919050565b6000611506826114db565b9050919050565b611516816114fb565b82525050565b6000602082019050611531600083018461150d565b92915050565b61154081611408565b811461154b57600080fd5b50565b60008135905061155d81611537565b92915050565b61156c816110dc565b811461157757600080fd5b50565b60008135905061158981611563565b92915050565b600080604083850312156115a6576115a561106f565b5b60006115b48582860161154e565b92505060206115c58582860161157a565b9150509250929050565b6000602082840312156115e5576115e461106f565b5b60006115f38482850161157a565b91505092915050565b7f4e487b7100000000000000000000000000000000000000000000000000000000600052601160045260246000fd5b6000611636826110dc565b9150611641836110dc565b925082821015611654576116536115fc565b5b82820390509291505056fea26469706673582212205853f2a0a2bfcd8974369355cea9f1dab6f993b6872bb0dc9679d56ba13829e264736f6c63430008080033a264697066735822122040102372fb1eabada46217771303f03f05f73fb31b5faa85199022c67e08cb4d64736f6c63430008080033",
  "devdoc": {
    "kind": "dev",
    "methods": {},
    "version": 1
  },
  "userdoc": {
    "kind": "user",
    "methods": {},
    "version": 1
  },
  "storageLayout": {
    "storage": [],
    "types": null
  }
}